:020000040000FA
:0400000080314028E3
:100008007E14803102302000A6070030A73D023060
:10001800A4070030A53D643024062504031D1A28D2
:100028000130A6020030A73BA401A5013C302606FA
:100038002704031924283B3026062704031D3D28DE
:100048000130A8070030A93DAE013C30280629043C
:10005800031D3B28A801A9010130D1070030D23D7A
:10006800183051065204031D3B28D101D201A601C4
:10007800A70111107E10090080314228B530840094
:100088008C30850048308600003087000030FF0043
:100098000D308C31A9248031153084008E308500D4
:1000A800A0308600003087000030FF004E308C31D1
:1000B800A9248031C73084008D3085002030860027
:1000C800013087000030FF004E308C31A924803188
:1000D800F0308400253085000030FE000230FF003B
:1000E8008C319D248031F03084002130850000302F
:1000F800FE000230FF008C319D248031FD0120304C
:100108008400003085001A30FE000030FF008C317A
:100118009D247E1020008D31932D0A30F000003090
:10012800F10020003F08F3003E08F2008E316326FC
:10013800803170037104031D92290A3020003E06A5
:100148003F04031DBA28210057082000BB002100E6
:1001580056082000BA00220057082000BD002200DF
:1001680056082000BC008C31D32408000B303E0612
:100178003F04031DD228210027082000BB002100CE
:1001880026082000BA00220027082000BD0022000F
:1001980026082000BC008C31D32408000C303E0611
:1001A8003F04031DEA2821005F082000BB0021004E
:1001B8005E082000BA0022005F082000BD0022006F
:1001C8005E082000BC008C31D32408000D303E06A8
:1001D8003F04031D0229210059082000BB0021000B
:1001E80058082000BA00220059082000BD0022004B
:1001F80058082000BC008C31D32408000E303E067D
:100208003F04031D1A29210031082000BB002100EA
:1002180030082000BA00220031082000BD0022006A
:1002280030082000BC008C31D32408000F303E0673
:100238003F04031D3229210029082000BB002100AA
:1002480028082000BA00220029082000BD0022004A
:1002580028082000BC008C31D324080010303E064A
:100268003F04031D4A29210055082000BB00210036
:1002780054082000BA00220055082000BD002200C2
:1002880054082000BC008C31D324080011303E06ED
:100298003F04031D6229210051082000BB002100F2
:1002A80050082000BA00220051082000BD0022009A
:1002B80050082000BC008C31D324080012303E06C0
:1002C8003F04031D7A29210025082000BB002100D6
:1002D80024082000BA00220025082000BD002200C2
:1002E80024082000BC008C31D324080013303E06BB
:1002F8003F04031D0800210037082000BB0021002F
:1003080036082000BA00220037082000BD0022006D
:1003180036082000BC008C31D32408001D30200092
:100328003E063F040319A72927303E063F04031958
:10033800A72931303E063F040319A7293B303E0662
:100348003F04031DBA29210035082000BB00210005
:1003580034082000BA00220035082000BD00220021
:1003680034082000BC008C31D32408001C303E0621
:100378003F040319CE2926303E063F040319CE292F
:1003880030303E063F040319CE293A303E063F047A
:10039800031DE129210023082000BB0021002208B9
:1003A8002000BA00220023082000BD0022002208F5
:1003B8002000BC008C31D32408001B303E063F04CB
:1003C8000319F52925303E063F040319F5292F3076
:1003D8003E063F040319F52939303E063F04031D44
:1003E800082A21004F082000BB0021004E082000E9
:1003F800BA0022004F082000BD0022004E0820004D
:10040800BC008C31D32408001A303E063F0403197F
:100418001C2A24303E063F0403191C2A2E303E06AF
:100428003F0403191C2A38303E063F04031D2F2AB7
:10043800210053082000BB00210052082000BA0008
:10044800220053082000BD00220052082000BC00F2
:100458008C31D324080019303E063F040319432A7F
:1004680023303E063F040319432A2D303E063F043D
:100478000319432A37303E063F04031D562A21003C
:100488002D082000BB0021002C082000BA00220003
:100498002D082000BD0022002C082000BC008C3153
:1004A800D324080018303E063F0403196A2A223074
:1004B8003E063F0403196A2A2C303E063F040319FE
:1004C8006A2A36303E063F04031D7D2A21002F0884
:1004D8002000BB0021002E082000BA0022002F08AF
:1004E8002000BD0022002E082000BC008C31D3243F
:1004F800080017303E063F040319912A21303E06B2
:100508003F040319912A2B303E063F040319912A10
:1005180035303E063F04031DA42A21005D08200053
:10052800BB0021005C082000BA0022005D08200002
:10053800BD0022005C082000BC008C31D3240800D8
:1005480016303E063F040319B82A20303E063F0401
:100558000319B82A2A303E063F040319B82A343052
:100568003E063F04031DCB2A210063082000BB0080
:10057800210062082000BA00220063082000BD00A4
:10058800220062082000BC008C31D32408001530FA
:100598003E063F040319DF2A1F303E063F040319B5
:1005A800DF2A29303E063F040319DF2A33303E068E
:1005B8003F04031DF22A21003F082000BB00210050
:1005C8003E082000BA0022003F082000BD0022009B
:1005D8003E082000BC008C31D324080009303E06B8
:1005E8003F04031D0A2B210041082000BB00210005
:1005F80040082000BA00220041082000BD00220067
:1006080040082000BC008C31D324080008303E0686
:100618003F04031D222B210039082000BB002100C4
:1006280038082000BA00220039082000BD00220046
:1006380038082000BC008C31D324080007303E065F
:100648003F04031D3A2B210045082000BB00210070
:1006580044082000BA00220045082000BD002200FE
:1006680044082000BC008C31D324080006303E0624
:100678003F04031D522B210047082000BB00210026
:1006880046082000BA00220047082000BD002200CA
:1006980046082000BC008C31D324080005303E06F3
:1006A8003F04031D6A2B21003B082000BB002100EA
:1006B8003A082000BA0022003B082000BD002200B2
:1006C8003A082000BC008C31D324080004303E06D0
:1006D8003F04031D822B21003D082000BB002100A0
:1006E8003C082000BA0022003D082000BD0022007E
:1006F8003C082000BC008C31D324080003303E069F
:100708003F04031D9A2B210049082000BB0021004B
:1007180048082000BA00220049082000BD00220035
:1007280048082000BC008C31D324080002303E0663
:100738003F04031DB22B21004B082000BB00210001
:100748004A082000BA0022004B082000BD00220001
:100758004A082000BC008C31D32408003E033F0423
:10076800031D0800210043082000BB0021004208A7
:100778002000BA00220043082000BD0022004208E1
:100788002000BC008C31D324080020003E083F0420
:10079800031DE12B21005F082000BB0021005E083B
:1007A8002000BA0022005F082000BD0022005E0879
:1007B8002000BC008C31D32408000B303E063F04D7
:1007C800031DF92B210027082000BB002100260863
:1007D8002000BA00220027082000BD0022002608B9
:1007E8002000BC008C31D32408000A303E063F04A8
:1007F800031D112C210057082000BB0021005608BA
:100808002000BA00220057082000BD002200560828
:100818002000BC008C31D324080009303E063F0478
:10082800031D292C210035082000BB0021003408B5
:100838002000BA00220035082000BD00220034083C
:100848002000BC008C31D324080008303E063F0449
:10085800031D412C210023082000BB002100220891
:100868002000BA00220023082000BD002200220830
:100878002000BC008C31D324080007303E063F041A
:10088800031D592C21004F082000BB0021004E08F1
:100898002000BA0022004F082000BD0022004E08A8
:1008A8002000BC008C31D324080006303E063F04EB
:1008B800031D712C210053082000BB0021005208A1
:1008C8002000BA00220053082000BD002200520870
:1008D8002000BC008C31D324080005303E063F04BC
:1008E800031D892C21002D082000BB0021002C08A5
:1008F8002000BA0022002D082000BD0022002C088C
:100908002000BC008C31D324080004303E063F048C
:10091800031DA12C21002F082000BB0021002E0858
:100928002000BA0022002F082000BD0022002E0857
:100938002000BC008C31D324080003303E063F045D
:10094800031DB92C21005D082000BB0021005C08B4
:100958002000BA0022005D082000BD0022005C08CB
:100968002000BC008C31D324080002303E063F042E
:10097800031DD12C210063082000BB002100620860
:100988002000BA00220063082000BD00220062088F
:100998002000BC008C31D32408003E033F04031D13
:1009A800080021003F082000BB0021003E0820006D
:1009B800BA0022003F082000BD0022003E082000A7
:1009C800BC008C31D32408000034093412341B34A1
:1009D80024342D3436343F34483441345A34533473
:1009E8006C3465347E347734193410340B34023463
:1009F8003D3434342F3426345134583443344A3453
:100A080075347C3467346E3432343B3420342934C2
:100A180016341F3404340D347A3473346834613432
:100A28005E3457344C3445342B3422343934303422
:100A38000F3406341D34143463346A347134783412
:100A480047344E3455345C3464346D3476347F34F2
:100A58004034493452345B342C3425343E343734F2
:100A6800083401341A3413347D3474346F346634E2
:100A7800593450344B34423435343C3427342E34D2
:100A88001134183403340A3456345F3444344D3442
:100A980072347B34603469341E3417340C340534B2
:100AA8003A343334283421344F3446345D345434A2
:100AB8006B3462347934703407340E3415341C3492
:100AC80023342A34313438344134483453345A3492
:100AD80065346C3477347E34093400341B34123472
:100AE8002D3424343F343634583451344A34433462
:100AF8007C3475346E3467341034193402340B3452
:100B080034343D3426342F3473347A3461346834C1
:100B180057345E3445344C343B3432342934203431
:100B28001F3416340D3404346A3463347834713421
:100B38004E3447345C34553422342B343034393411
:100B480006340F3414341D3425342C3437343E34F1
:100B58000134083413341A346D3464347F347634F1
:100B6800493440345B3452343C3435342E342734E1
:100B7800183411340A34033474347D3466346F34D1
:100B88005034593442344B3417341E3405340C3441
:100B980033343A34213428345F3456344D344434B1
:100BA8007B347234693460340E3407341C341534A1
:100BB8002A3423343834313446344F3454345D3491
:100BC80062346B347034793420000D1EF02D3308F4
:100BD800031DF02DB301B30A0D1AF82D33080319BC
:100BE800F82DB301B401B40A8D1DFF2D3208031D81
:100BF800FF2DB201B20A8D19352E32080319352E90
:100C0800B201530803191D2E0130CF070030D03D23
:100C180018304F065004031D132ECF01D001B40124
:100C2800B40A5008C3004F08C2004E08C5004D085A
:100C3800312E0130D1070030D23D18305106520410
:100C4800031D282ED101D201B401B40A5208C300F1
:100C58005108C2002908C5002808C4008E31B426EE
:100C6800853120000D1D3D2E3108031D3D2EB1019B
:100C7800B10A0D19732E31080319732EB1015308E7
:100C880003195B2E0130CD070030CE3D3C304D06B8
:100C98004E04031D512ECD01CE01B401B40A5008F3
:100CA800C3004F08C2004E08C5004D086F2E013022
:100CB800A8070030A93D3C3028062904031D662EEC
:100CC800A801A901B401B40A5208C3005108C2001E
:100CD8002908C5002808C4008E31B42685312000B3
:100CE8008D1C7B2E3008031D7B2EB001B00A8D1899
:100CF8000800300803190800B00153080319AF2E83
:100D0800D301B401B40A210067082000BB00210008
:100D180066082000BA00220067082000BD002200F3
:100D280066082000BC008C31D32485312100690875
:100D38002000BB00210068082000BA0022006908D2
:100D48002000BD00220068082000BC008C31D3249C
:100D58002000B4010800D301D30AB401B40A210069
:100D680065082000BB00210064082000BA002200AA
:100D780065082000BD00220064082000BC008C31FA
:100D8800D3248531210069082000BB0021006808B0
:100D98002000BA00220069082000BD00220068086F
:100DA8002000BC008C31D3242000B4010800F600D8
:100DB800F80176083F394038F5007508F7007708DC
:100DC8008C31812486317835F5007508F80078086B
:100DD8007706F5007508F8007808E83E8400843046
:100DE8000318013E85000008F5007508F800710831
:100DF800F5007508F70077088C318124863178353D
:100E0800F5007508F80078087706F5007508F80009
:100E18007808E83E840084300318013E8500000805
:100E2800F5007508F8007208F5007508F7007708EE
:100E38008C31812486317835F5007508F8007808FA
:100E48007706F5007508F8007808E83E84008430D5
:100E58000318013E85000008F5007508F8007308BE
:100E6800F5007508F70077088C31812486317835CC
:100E7800F5007508F80078087706F5007508F80099
:100E88007808E83E840084300318013E8500000895
:100E9800F5007508F8007408F5007508F70077087C
:100EA8008C31812486317835F5007508F80078088A
:100EB8007706F5007508F8007808E83E8400843065
:100EC8000318013E85000008F5007508F8000314B2
:100ED800780DF5007508F70077088C318124080033
:100EE8000A30F0000030F10020004108F30040080B
:100EF800F2008E3163268731023070067104031DBB
:100F0800942F210061082000BB0021006008200008
:100F1800BA00220061082000BD0022006008F32FFB
:100F28000A30F0000030F10020004108F3004008CA
:100F3800F2008E3163268731033070067104031D79
:100F4800B42F21005B082000BB0021005A082000B4
:100F5800BA0022005B082000BD0022005A08F32FC7
:100F68000A30F0000030F10020004108F30040088A
:100F7800F2008E3163268731043070067104031D38
:100F8800D42F210033082000BB00210032082000A4
:100F9800BA00220033082000BD0022003208F32FD7
:100FA8000A30F0000030F10020004108F30040084A
:100FB800F2008E3163268731053070067104031DF7
:100FC800F82F21002B082000BB0021002A08200050
:100FD800BA0022002B082000BD0022002A082000A9
:100FE800BC008C31D324873120004108BF00400861
:080FF800BE00803191200800C9
:1018F400FF3024009100141C7D2C11080800F00016
:1019040070082400910014180800852CF000F101DF
:10191400F10A700820005406031DF1017108080043
:10192400F2007208F000F10170082B008F007108BA
:1019340090000D1408006400800101310130FE02A2
:101944000030FF3B7F087E04031900349E2CFE0008
:1019540012001E000130FE020030FF3B7F087E04AF
:1019640003190034AA2CFF34FF34FF34FF34FF344E
:10197400013400340D3400340D3400340134FF34A8
:101984008C317A248C31F0007008F100710A03194B
:10199400C22C7108F00070082000D4008C317A2425
:1019A400080020003508031D080034080319080046
:1019B4003B08B9003A08B8003830FB007B08FD004A
:1019C4003D08AB003C08AA00B501B50A8F310D27CC
:1019D400080021000D1623000D1221008D1523008F
:1019E4008D1121000D1523000D1121008D142300EC
:1019F4008D1021000D1423000D1021008D122300E1
:101A04008D120800F400F501F50A20004808740658
:101A1400031DF50149087006031DF5014A08710606
:101A2400031DF5014B087206031DF5014C087306EE
:101A3400031DF5017508080021000E1121303D0039
:101A4400A20012303C00BA0021008E1523008E1132
:101A540013303C00BB0021000E1223303D00A400D3
:101A640021008E13803024009400303095009201C0
:101A74000800200050085206031D422D4F0851064D
:101A8400031D08004E082906031D4A2D4D0828068B
:101A9400031D08002E08031D0800B401B40A210028
:101AA4006B082000BB0021006A082000BA00220055
:101AB4006B082000BD0022006A082000BC008C31A5
:101AC400D3242000B40108008C317A248D31F00035
:101AD4007008F100710A0319662D7108F00070088E
:101AE4002000C8008C317A248D31F0007008200069
:101AF400C9008C317A248D31F00070082000CA00AE
:101B04008C317A248D31F00070082000CB008C31A8
:101B14007A248D31F00070082000CC008C317A24B6
:101B24000800F43021009B001C1E962D8D311E25CB
:101B34008D318F3174278D318C31EB248D31A03070
:101B44002B008E000530290097001F309400803050
:101B54009500C0308B00013021009100C33020007B
:101B64009A0011108531E8258D318D313B258D3159
:101B740020005208C3005108C2002908C5002808E3
:101B8400C4008E31B4268D31B42D1734003436346C
:101B940000345A3400347C340034A0340034CB3460
:101BA4000334C2340034D8340034FC3400340C34EC
:101BB4000134223401344F340134683401348C3418
:101BC4000134AC340134C1340134DC340134F7342D
:101BD40001341534023434340234503402346F3452
:101BE4000234893402349C340234C1340234D6348D
:101BF4000234FD340234193403343A3403344E3499
:101C0400033460340334843403349C340334B034F4
:101C14000334E934033402340434153404346C34A6
:101C24001B343E3422340034003417340034363448
:101C340000345A3400347C340034B0340334AE34C9
:101C44000034C2340034D8340034FC3400340C344E
:101C54000134223401344F340134683401348C3477
:101C64000134AC340134C1340134DC340134F7348C
:101C740001341534023434340234503402346F34B1
:101C84000234893402349C340234C1340234D634EC
:101C94000234FD340234193403343A3403344E34F8
:101CA400033460340334843403349C340334CB3439
:101CB4000334E934033402340434153404346C3406
:101CC4001B34F601F11F6D2EF009F109F00A031916
:101CD400F10AF601F60AF31F782EF209F309F20A63
:101CE4000319F30A0130F4007408F606F701F80149
:101CF400700871040319A72EF501F50AF11B8C2E47
:101D04000130F035F10D890B832E0130F400740895
:101D1400F507802E0130F735F80D890B8D2E7108EB
:101D24007302031D972E70087202031C9E2E700806
:101D3400F2027108F33B77140130F136F00C890B91
:101D44009F2E0130F502031D8C2E76080319AF2E49
:101D5400F709F809F70A0319F80A7808F10077086F
:101D6400F000080020003403031D08004308803AF3
:101D7400FC0080307C02031DC12E0C30420203188B
:101D8400E22E20004308BF004208BE008331C9236D
:101D94008E3120004508C1004408C00087317427F3
:101DA4008E31210021082000BB00210020082000E2
:101DB400BA00220021082000BD0022002008062FBE
:101DC40020004208F43EC600FF30433DC7004708E8
:101DD400BF004608BE008331C9238E312000450868
:101DE400C1004408C000873174278E3121004D089A
:101DF4002000BB0021004C082000BA0022004D083E
:101E04002000BD0022004C082000BC008C31D324EB
:101E14002000B401080020002B083906031D142FEC
:101E24002A0838060319722F2C082D04031D382F95
:101E3400F101F2017D0886008701413FF3007D082E
:101E4400860087010108F9007908F4001130863111
:101E5400DB268F318C31C2248F318C317A248F313F
:101E6400F9007908FA007A0A03192F2F8C317A24A1
:101E74008F31F90079082000B60036088C3192249D
:101E84008F3101302000AC070030AD3D02302D060B
:101E94002C04031D5C2F0130B8070030B93DAC01A0
:101EA400AD018C317A248F318C317A248F318C318D
:101EB4007A248F312000911C5C2F91100D1C672F08
:101EC4002F08031D672FAF01AF0A0D180D2F2F0820
:101ED40003190D2FAF01B401B501AE01AE0A08001C
:101EE400B501080020008E1724009513FF308C31B3
:101EF40081248F31FF308C3181248F31FF308C313C
:101F040081248F31FF308C3181248F31FF308C312B
:101F140081248F31FF308C3181248F31FF308C311B
:101F240081248F31FF308C3181248F31FF308C310B
:101F340081248F31FF308C3181248F3120008E1326
:101F440024009513F101F201F301F401003086310C
:101F5400DB268F318C31C2248F31000001308C316B
:101F640088248F31003A0319A42FF101F201F301FF
:101F7400F30AAA30F9007908F40008308631DB2628
:101F84008F318D3166258F310000F001F101F201AE
:101F9400F20AAA30F9007908F30001308D310425E2
:101FA4008F31003A0319B72FF101F201F301F40163
:101FB40037308631DB268F318C31C2248F310000DB
:101FC40001308C3188248F31003A0319D62F4030E8
:101FD400F9007908F100F201F301F40129308631A6
:101FE400DB268F318C31C2248F31000000308C31DC
:0C1FF40088248F31003A031D0800D62F0E
:020000040001F9
:04000E00E4FFFFFF0D
:00000001FF
