:020000040000FA
:10000000803102288731B22FF0007008240091005F
:100010001418080008286400800101310130FE0234
:100020000030FF3B7F087E04031900340C28FE00DB
:1000300012001E000130FE020030FF3B7F087E04EC
:100040000319003418288F31DA278031F000700846
:10005000F100710A031923287108F00070082000CC
:10006000CA008F31DA27080021000D1623000D1277
:1000700021008D1523008D1121000D1523000D1178
:1000800021008D1423008D1021000D1423000D106C
:100090000800F400F501F50A200041087406031D6C
:1000A000F50142087006031DF50143087106031DA2
:1000B000F50144087206031DF50145087306031D8A
:1000C000F5017508080020002E08031D78282D086A
:1000D000031978283408B2003308B1003130FB002E
:1000E0007B08FD003608A5003508A400AE01AE0A65
:1000F0002D08031908008131FC21080021000E1190
:1001000021303D00A20012303C00BA0021008E15C3
:1001100023008E1113303C00BB0021000E1223304F
:100120003D00A40021008E13803024009400303064
:10013000950092010800F43021009B001C1E9E28AF
:1001400080317E2080318331222380318031342000
:100150008031A0302B008E000530290097001F3021
:100160009400803095008031F32080318231AB22C1
:10017000803120004908BC004808BB004708BE0089
:100180004608BD00823152228031B3288F31DA27F0
:100190008031F0007008F100710A0319C628710857
:1001A000F00070082000C1008F31DA278031F000A4
:1001B00070082000C2008F31DA278031F00070080B
:1001C0002000C3008F31DA278031F0007008200052
:1001D000C4008F31DA278031F00070082000C5009C
:1001E0008F31DA27080001302000A0070030A13D40
:1001F0000030A23D0030A33D20033F30031921060B
:1002000022042304031D08000030A3000030A200D4
:100210000030A1000030A0000130C6070030C73D0B
:100220003C3046064704031D0800C601C7010130E3
:10023000C8070030C93D183048064904031D0800AE
:10024000C801C901080017340034363400345A3468
:1002500000347C340034A0340034CB340334C23452
:100260000034D8340034FC3400340C3401342234EB
:1002700001344F340134683401348C340134AC34EB
:100280000134C1340134DC340134F7340134153421
:10029000023434340234503402346F34023489343A
:1002A00002349C340234C1340234D6340234FD3476
:1002B0000234193403343A3403344E340334603492
:1002C0000334843403349C340334B03403340034B2
:1002D000003417340034363400345A3400347C345B
:1002E0000034B0340334AE340034C2340034D83473
:1002F0000034FC3400340C340134223401344F34E3
:100300000134683401348C340134AC340134C134E8
:100310000134DC340134F73401341534023434341C
:100320000234503402346F340234893402349C3441
:100330000234C1340234D6340234FD340234193468
:1003400003343A3403344E34033460340334843495
:1003500003349C340334F601F11FB529F009F10987
:10036000F00A0319F10AF601F60AF31FC029F2098F
:10037000F309F20A0319F30A0130F4007408F606CF
:10038000F701F801700871040319EF29F501F50A66
:10039000F11BD4290130F035F10D890BCB29013047
:1003A000F4007408F507C8290130F735F80D890BFA
:1003B000D52971087302031DDF2970087202031C1E
:1003C000E6297008F2027108F33B77140130F13628
:1003D000F00C890BE7290130F502031DD4297608BA
:1003E0000319F729F709F809F70A0319F80A780831
:1003F000F1007708F0000800200025083206031DF0
:10040000032A240831060319502A26082704031D4D
:10041000272AF101F2017D0886008701413FF300A0
:100420007D08860087010108F9007908F400113081
:1004300084313A2481318031232081318F31DA2790
:100440008131F9007908FA007A0A03191E2A8F31DE
:10045000DA278131F90079082000AF002F088F31A9
:10046000F527813101302000A6070030A73D02307A
:1004700027062604031D4B2A0130B1070030B23D88
:10048000A601A7018F31DA2781318F31DA27813137
:100490008F31DA2781312000911C4B2A9110FC29E1
:1004A000AE01080020002D03031D08003C08803A1F
:1004B000FC0080307C02031D5F2A0C303B020318D5
:1004C000802A20003C08B8003B08B7008431D324C0
:1004D000823120003E08BA003D08B9008331AE23C6
:1004E0008231210021082000B400210020082000D2
:1004F000B300220021082000B60022002008A42A10
:1005000020003B08F43EBF00FF303C3DC0004008E7
:10051000B8003F08B7008431D324823120003E0860
:10052000BA003D08B9008331AE23823121004D0865
:100530002000B40021004C082000B30022004D0828
:100540002000B60022004C082000B5008031632056
:100550002000AD01080020000D1EB32A2C08031D49
:10056000B32AAC01AC0A0D1ABB2A2C080319BB2A0A
:10057000AC01AD01AD0A8D1DC22A2B08031DC22A94
:10058000AB01AB0A8D19E02A2B080319E02AAB0155
:100590000130C8070030C93D183048064904031D22
:1005A000D32AC801C901AD01AD0A4908BC004808F9
:1005B000BB004708BE004608BD008231522282318E
:1005C00020000D1DE82A2A08031DE82AAA01AA0A0C
:1005D0000D19062B2A080319062BAA010130C6079C
:1005E0000030C73D3C3046064704031DF92AC601CA
:1005F000C701AD01AD0A4908BC004808BB00470867
:10060000BE004608BD0082315222823120008D1C7E
:100610000E2B2908031D0E2BA901A90A8D18142BD6
:1006200029080319142BA9010D1C1B2B2808031DD5
:100630001B2BA801A80A0D18080028080319080098
:10064000A801080020008E1724009513FF30803188
:1006500004208331FF30803104208331FF3080312A
:1006600004208331FF30803104208331FF3080311A
:1006700004208331FF30803104208331FF3080310A
:1006800004208331FF30803104208331FF308031FA
:1006900004208331FF3080310420833120008E1309
:1006A00024009513F101F201F301F40100308431CB
:1006B0003A248331803123208331000001308F318F
:1006C000E1278331003A0319522BF101F201F301C2
:1006D000F30AAA30F9007908F400083084313A248A
:1006E00083318031C62083310000F001F101F20135
:1006F000F20AAA30F9007908F3000130803149206C
:100700008331003A0319652BF101F201F301F40181
:10071000373084313A248331803123208331000003
:1007200001308F31E1278331003A0319842B4030A7
:10073000F9007908F100F201F301F4012930843164
:100740003A248331803123208331000000308F31FF
:10075000E1278331003A031D0800842B0A30F000A2
:100760000030F10020003A08F3003908F20081312E
:10077000AB218331023070067104031DCE2B2100A2
:1007800061082000B400210060082000B3002200AE
:1007900061082000B600220060082D2C0A30F0000D
:1007A0000030F10020003A08F3003908F2008131EE
:1007B000AB218331033070067104031DEE2B210041
:1007C0005B082000B40021005A082000B30022007A
:1007D0005B082000B60022005A082D2C0A30F000D9
:1007E0000030F10020003A08F3003908F2008131AE
:1007F000AB218331043070067104031D0E2C2100DF
:1008000033082000B400210032082000B300220089
:1008100033082000B600220032082D2C0A30F000E8
:100820000030F10020003A08F3003908F20081316D
:10083000AB218331053070067104031D322C210079
:100840002B082000B40021002A082000B300220059
:100850002B082000B60022002A082000B5008031B5
:100860006320833120003A08B8003908B700853189
:10087000F2250800F600F80176083F394038F50007
:100880007508F70077088031042084317835F50049
:100890007508F80078087706F5007508F8007808FC
:1008A000003E840088300318013E85000008F500F2
:1008B0007508F8007108F5007508F70077088031B1
:1008C000042084317835F5007508F800780877063B
:1008D000F5007508F8007808003E84008830031899
:1008E000013E85000008F5007508F8007208F50063
:1008F0007508F70077088031042084317835F500D9
:100900007508F80078087706F5007508F80078088B
:10091000003E840088300318013E85000008F50081
:100920007508F8007308F5007508F700770880313E
:10093000042084317835F5007508F80078087706CA
:10094000F5007508F8007808003E84008830031828
:10095000013E85000008F5007508F8007408F500F0
:100960007508F70077088031042084317835F50068
:100970007508F80078087706F5007508F80078081B
:10098000003E840088300318013E85000008F50011
:100990007508F8000314780DF5007508F70077085E
:1009A000803104200800200037083804031DEB2C98
:1009B00021005F082000B40021005E082000B30081
:1009C00022005F082000B60022005E082000B5006B
:1009D0008031632008000B3037063804031D032DD7
:1009E000210027082000B400210026082000B300C1
:1009F000220027082000B600220026082000B500AB
:100A00008031632008000A3037063804031D1B2D8F
:100A1000210057082000B400210056082000B30030
:100A2000220057082000B600220056082000B5001A
:100A3000803163200800093037063804031D332D48
:100A4000210035082000B400210034082000B30044
:100A5000220035082000B600220034082000B5002E
:100A6000803163200800083037063804031D4B2D01
:100A7000210023082000B400210022082000B30038
:100A8000220023082000B600220022082000B50022
:100A9000803163200800073037063804031D632DBA
:100AA00021004F082000B40021004E082000B300B0
:100AB00022004F082000B60022004E082000B5009A
:100AC000803163200800063037063804031D7B2D73
:100AD000210053082000B400210052082000B30078
:100AE000220053082000B600220052082000B50062
:100AF000803163200800053037063804031D932D2C
:100B000021002D082000B40021002C082000B30093
:100B100022002D082000B60022002C082000B5007D
:100B2000803163200800043037063804031DAB2DE4
:100B300021002F082000B40021002E082000B3005F
:100B400022002F082000B60022002E082000B50049
:100B5000803163200800033037063804031DC32D9D
:100B600021005D082000B40021005C082000B300D3
:100B700022005D082000B60022005C082000B500BD
:100B8000803163200800023037063804031DDB2D56
:100B9000210063082000B400210062082000B30097
:100BA000220063082000B600220062082000B50081
:100BB00080316320080037033804031D080021003A
:100BC0003F082000B40021003E082000B3002200AE
:100BD0003F082000B60022003E082000B50080310A
:100BE000632008000A30F0000030F10020003808CF
:100BF000F3003708F2008131AB21853170037104B5
:100C0000031DEC2E0A30200037063804031D1B2E6E
:100C1000210057082000B400210056082000B3002E
:100C2000220057082000B600220056082000B50018
:100C30008031632008000B3037063804031D332E43
:100C4000210027082000B400210026082000B3005E
:100C5000220027082000B600220026082000B50048
:100C60008031632008000C3037063804031D4B2EFA
:100C700021005F082000B40021005E082000B300BE
:100C800022005F082000B60022005E082000B500A8
:100C900080316320080037083804031D622E2100CC
:100CA00059082000B400210058082000B300220099
:100CB00059082000B600220058082000B5008031F5
:100CC0006320080037083804031D792E21003108FD
:100CD0002000B400210030082000B30022003108B9
:100CE0002000B600220030082000B50080316320CB
:100CF000080037083804031D902E21002908200021
:100D0000B400210028082000B30022002908200098
:100D1000B600220028082000B500803163200800BA
:100D200037083804031DA72E210055082000B40001
:100D3000210054082000B300220055082000B6000E
:100D4000220054082000B5008031632008003708D5
:100D50003804031DBE2E210051082000B4002100DC
:100D600050082000B300220051082000B6002200E5
:100D700050082000B500803163200800370838048F
:100D8000031DD52E210025082000B40021002408D1
:100D90002000B300220025082000B600220024080D
:100DA0002000B50080316320080037083804031D97
:100DB0000800210037082000B40021003608200078
:100DC000B300220037082000B600220036082000B9
:100DD000B500803163200800093020003706380450
:100DE000031D052F210041082000B4002100400808
:100DF0002000B300220041082000B6002200400875
:100E00002000B50080316320080008303706380420
:100E1000031D1D2F210039082000B40021003808CF
:100E20002000B300220039082000B6002200380854
:100E30002000B500803163200800073037063804F1
:100E4000031D352F210045082000B400210044086F
:100E50002000B300220045082000B600220044080C
:100E60002000B500803163200800063037063804C2
:100E7000031D4D2F210047082000B4002100460823
:100E80002000B300220047082000B60022004608D8
:100E90002000B50080316320080005303706380493
:100EA000031D652F21003B082000B40021003A08F3
:100EB0002000B30022003B082000B60022003A08C0
:100EC0002000B50080316320080004303706380464
:100ED000031D7D2F21003D082000B40021003C08A7
:100EE0002000B30022003D082000B60022003C088C
:100EF0002000B50080316320080003303706380435
:100F0000031D952F210049082000B4002100480846
:100F10002000B300220049082000B6002200480843
:100F20002000B50080316320080002303706380405
:100F3000031DAD2F21004B082000B40021004A08FA
:100F40002000B30022004B082000B60022004A080F
:100F50002000B50080316320080037033804031DEA
:100F60000800F22EEB3084008F308500413086007F
:100F7000003087000030FF000A30803117208731B1
:100F80006730840081308500A03086000030870003
:100F90000030FF0044308031172087312330840037
:100FA0008130850020308600013087000030FF004E
:100FB0004430803117208731F0308400253085009F
:100FC0000030FE000230FF0080310B208731F0300E
:100FD0008400213085000030FE000230FF008031A7
:100FE0000B208731FD012030840000308500133054
:100FF000FE000030FF0080310B20200080319B2854
:101000000034093412341B3424342D3436343F3444
:10101000483441345A3453346C3465347E34773434
:10102000193410340B3402343D3434342F34263424
:101030005134583443344A3475347C3467346E3414
:1010400032343B342034293416341F3404340D3404
:101050007A347334683461345E3457344C344534F4
:101060002B342234393430340F3406341D341434E4
:1010700063346A347134783447344E3455345C34D4
:1010800064346D3476347F344034493452345B34C4
:101090002C3425343E343734083401341A341334B4
:1010A0007D3474346F346634593450344B344234A4
:1010B00035343C3427342E341134183403340A3494
:1010C00056345F3444344D3472347B346034693484
:1010D0001E3417340C3405343A3433342834213474
:1010E0004F3446345D3454346B3462347934703464
:1010F00007340E3415341C3423342A343134383454
:101100004134483453345A3465346C3477347E3443
:10111000093400341B3412342D3424343F34363433
:10112000583451344A3443347C3475346E34673423
:101130001034193402340B3434343D3426342F3413
:1011400073347A346134683457345E3445344C3403
:101150003B343234293420341F3416340D340434F3
:101160006A346334783471344E3447345C345534E3
:1011700022342B343034393406340F3414341D34D3
:1011800025342C3437343E340134083413341A34C3
:101190006D3464347F347634493440345B345234B3
:1011A0003C3435342E342734183411340A340334A3
:1011B00074347D3466346F345034593442344B3493
:1011C00017341E3405340C3433343A342134283483
:1011D0005F3456344D3444347B3472346934603473
:1011E0000E3407341C3415342A3423343834313463
:1011F00046344F3454345D3462346B347034793453
:101FB400FF3024009100141CDD2F11080800F000EC
:101FC400F101F10A700820004A06031DF1017108AD
:101FD4000800FF34FF34FF34FF34FF341734003477
:101FE40009340034FF34F2007208F000F101700883
:0C1FF4002B008F00710890000D140800F5
:020000040001F9
:04000E00E4FFFFFF0D
:00000001FF
