:020000040000FA
:08000000803102288731B22F84
:10007800FF3024009100141C3F2811080800F000EC
:10008800700824009100141808004728F000F101B6
:10009800F10A700820004806031DF10171080800E4
:1000A800FF34FF34FF34FF34FF341734003409348D
:1000B8000034FF34F2007208F000F10170082B00E0
:1000C8008F00710890000D14080064008001013150
:1000D8000130FE020030FF3B7F087E040319003424
:1000E8006A28FE0012001E000130FE020030FF3BAD
:1000F8007F087E0403190034762880313C20803143
:10010800F0007008F100710A031981287108F000E5
:1001180070082000C80080313C200800F400F50178
:10012800F50A20003F087406031DF5014008700613
:10013800031DF50141087106031DF5014208720609
:10014800031DF50143087306031DF5017508080032
:1001580020002E08031DC1282D080319C1283408C2
:10016800B2003308B1003130FB007B08FD003608CF
:10017800A5003508A400AE01AE0A2D080319080031
:100188008131EA21080021000E1121303D00A20032
:1001980012303C00BA0021008E1523008E11133056
:1001A8003C00BB0021000E1223303D00A4002100BA
:1001B8008E1380302400940030309500920108009E
:1001C80080313C208031F0007008F100710A031979
:1001D800E4287108F00070082000BF0080313C203E
:1001E8008031F00070082000C00080313C20803150
:1001F800F00070082000C10080313C208031F00000
:1002080070082000C20080313C208031F000700866
:100218002000C30080313C200800173400343634F5
:1002280000345A3400347C340034A0340034CB34E5
:100238000334C2340034D8340034FC3400340C3471
:100248000134223401344F340134683401348C349D
:100258000134AC340134C1340134DC340134F734B2
:1002680001341534023434340234503402346F34D7
:100278000234893402349C340234C1340234D63412
:100288000234FD340234193403343A3403344E341E
:10029800033460340334843403349C340334B0347A
:1002A80003340034003417340034363400345A34FC
:1002B80000347C340034B0340334AE340034C234F7
:1002C8000034D8340034FC3400340C340134223483
:1002D80001344F340134683401348C340134AC3483
:1002E8000134C1340134DC340134F73401341534B9
:1002F800023434340234503402346F3402348934D2
:1003080002349C340234C1340234D6340234FD340D
:100318000234193403343A3403344E340334603429
:100328000334843403349C340334F601F11FA329C5
:10033800F009F109F00A0319F10AF601F60AF31FA8
:10034800AE29F209F309F20A0319F30A0130F4009D
:100358007408F606F701F801700871040319DD291D
:10036800F501F50AF11BC2290130F035F10D890BB1
:10037800B9290130F4007408F507B6290130F735BA
:10038800F80D890BC32971087302031DCD29700864
:100398007202031CD4297008F2027108F33B771427
:1003A8000130F136F00C890BD5290130F502031D17
:1003B800C22976080319E529F709F809F70A031984
:1003C800F80A7808F1007708F000080020002508EE
:1003D8003206031DF1292408310603193E2A26088E
:1003E8002704031D152AF101F2017D088600870103
:1003F800413FF3007D08860087010108F90079086C
:10040800F4001130843128248131803181208131F8
:1004180080313C208131F9007908FA007A0A031901
:100428000C2A80313C208131F90079082000AF0086
:100438002F0880315E20813101302000A60700306E
:10044800A73D023027062604031D392A0130B107CB
:100458000030B23DA601A70180313C2081318031B6
:100468003C20813180313C2081312000911C392A87
:100478009110EA29AE010800F43021009B001C1EEF
:10048800432A0D1623000D128031C7208231833193
:100498000C238231A0302B008E00053029009700F4
:1004A8001F3094008030950001302000A0070030F4
:1004B800A13D0030A23D0030A33D20033F30031989
:1004C800210622042304031D872A0030A3000030DC
:1004D800A2000030A1000030A0000130C4070030A5
:1004E800C53D3C3044064504031D872AC401C501A7
:1004F8000130C6070030C73D183046064704031DC3
:10050800872AC601C7014708BA004608B900450846
:10051800BC004408BB008231A322823120000D1E9A
:100528009A2A2C08031D9A2AAC01AC0A0D1A582ADB
:100538002C080319582AAC01AD01AD0A582A20002D
:100548002D03031D08003A08803AFC0080307C0225
:10055800031DB02A0C3039020318D92A20003A08A2
:10056800B8003908B7008431C124823120003C0822
:10057800B8003B08B70083319823823120003C083B
:10058800B8003B08B7008531E025823121002108F9
:100598002000B400210020082000B3002200210818
:1005A8002000B60022002008052B20003908F43E60
:1005B800BD00FF303A3DBE003E08B8003D08B70018
:1005C8008431C124823120003C08B8003B08B700C0
:1005D80083319823823120003C08B8003B08B700DB
:1005E8008531E025823121004D082000B40021002A
:1005F8004C082000B30022004D082000B60022005D
:100608004C082000B5008031AC202000AD01080066
:1006180020008E1724009513FF308031432083314A
:10062800FF30803143208331FF30803143208331D4
:10063800FF30803143208331FF30803143208331C4
:10064800FF30803143208331FF30803143208331B4
:10065800FF30803143208331FF30803143208331A4
:10066800FF3080314320833120008E1324009513FE
:10067800F101F201F301F4010030843128248331BF
:100688008031812083310000013080314A2083315C
:10069800003A03193C2BF101F201F301F30AAA30E5
:1006A800F9007908F4000830843128248331803136
:1006B800E42083310000F001F101F201F20AAA30CE
:1006C800F9007908F3000130803192208331003A33
:1006D80003194F2BF101F201F301F4013730843192
:1006E800282483318031812083310000013080311A
:1006F8004A208331003A03196E2B4030F9007908FB
:10070800F100F201F301F401293084312824833106
:100718008031812083310000003080314A208331CC
:10072800003A031D08006E2B0A30F0000030F1007B
:1007380020003808F3003708F2008131992183310D
:10074800023070067104031DBC2B210061082000D3
:10075800B400210060082000B300220061082000D6
:10076800B600220060082000B5008031AC200800E7
:100778000A30F0000030F10020003808F300370894
:10078800F200813199218331033070067104031D11
:10079800E02B21005B082000B40021005A0820004B
:1007A800B30022005B082000B60022005A0820008F
:1007B800B5008031AC2008000A30F0000030F100AC
:1007C80020003808F3003708F2008131992183317D
:1007D800043070067104031D042C21003308200026
:1007E800B400210032082000B300220033082000A2
:1007F800B600220032082000B5008031AC20080085
:100808000A30F0000030F10020003808F300370803
:10081800F200813199218331053070067104031D7E
:10082800080021002B082000B40021002A0820001D
:10083800B30022002B082000B60022002A0820005E
:10084800B5008031AC200800F600F80176083F3981
:100858004038F5007508F700770880314320843167
:100868007835F5007508F80078087706F5007508FA
:10087800F8007808003E840088300318013E85009F
:100888000008F5007508F8007108F5007508F7000C
:1008980077088031432084317835F5007508F800F1
:1008A80078087706F5007508F8007808003E840097
:1008B80088300318013E85000008F5007508F80027
:1008C8007208F5007508F7007708803143208431F5
:1008D8007835F5007508F80078087706F50075088A
:1008E800F8007808003E840088300318013E85002F
:1008F8000008F5007508F8007308F5007508F7009A
:1009080077088031432084317835F5007508F80080
:1009180078087706F5007508F8007808003E840026
:1009280088300318013E85000008F5007508F800B6
:100938007408F5007508F700770880314320843182
:100948007835F5007508F80078087706F500750819
:10095800F8007808003E840088300318013E8500BE
:100968000008F5007508F8000314780DF5007508FF
:10097800F700770880314320080020003708380442
:10098800031DD92C21005F082000B40021005E0857
:100998002000B30022005F082000B60022005E0895
:1009A8002000B5008031AC2008000B303706380431
:1009B800031DF12C210027082000B400210026087F
:1009C8002000B300220027082000B60022002608D5
:1009D8002000B5008031AC2008000A303706380402
:1009E800031D092D210057082000B40021005608D6
:1009F8002000B300220057082000B6002200560845
:100A08002000B5008031AC200800093037063804D2
:100A1800031D212D210035082000B40021003408D1
:100A28002000B300220035082000B6002200340858
:100A38002000B5008031AC200800083037063804A3
:100A4800031D392D210023082000B40021002208AD
:100A58002000B300220023082000B600220022084C
:100A68002000B5008031AC20080007303706380474
:100A7800031D512D21004F082000B40021004E080D
:100A88002000B30022004F082000B60022004E08C4
:100A98002000B5008031AC20080006303706380445
:100AA800031D692D210053082000B40021005208BD
:100AB8002000B300220053082000B600220052088C
:100AC8002000B5008031AC20080005303706380416
:100AD800031D812D21002D082000B40021002C08C1
:100AE8002000B30022002D082000B60022002C08A8
:100AF8002000B5008031AC200800043037063804E7
:100B0800031D992D21002F082000B40021002E0874
:100B18002000B30022002F082000B60022002E0873
:100B28002000B5008031AC200800033037063804B7
:100B3800031DB12D21005D082000B40021005C08D0
:100B48002000B30022005D082000B60022005C08E7
:100B58002000B5008031AC20080002303706380488
:100B6800031DC92D210063082000B400210062087C
:100B78002000B300220063082000B60022006208AB
:100B88002000B5008031AC20080037033804031D6D
:100B9800080021003F082000B40021003E08200082
:100BA800B30022003F082000B60022003E082000C3
:100BB800B5008031AC2008000A30F0000030F100A8
:100BC80020003808F3003708F20081319921853177
:100BD80070037104031DDA2E0A302000370638042A
:100BE800031D092E210057082000B40021005608D3
:100BF8002000B300220057082000B6002200560843
:100C08002000B5008031AC2008000B3037063804CE
:100C1800031D212E210027082000B40021002608EA
:100C28002000B300220027082000B6002200260872
:100C38002000B5008031AC2008000C30370638049D
:100C4800031D392E21005F082000B40021005E0832
:100C58002000B30022005F082000B60022005E08D2
:100C68002000B5008031AC20080037083804031D87
:100C7800502E210059082000B400210058082000F7
:100C8800B300220059082000B600220058082000AE
:100C9800B5008031AC20080037083804031D672EE2
:100CA800210031082000B400210030082000B300E2
:100CB800220031082000B600220030082000B500CC
:100CC8008031AC20080037083804031D7E2E21002F
:100CD80029082000B400210028082000B3002200C1
:100CE80029082000B600220028082000B50080311D
:100CF800AC20080037083804031D952E210055083C
:100D08002000B400210054082000B3002200550838
:100D18002000B600220054082000B5008031AC2025
:100D2800080037083804031DAC2E210051082000A4
:100D3800B400210050082000B30022005108200010
:100D4800B600220050082000B5008031AC20080011
:100D580037083804031DC32E210025082000B400DD
:100D6800210024082000B300220025082000B60036
:100D7800220024082000B5008031AC200800370884
:100D88003804031D0800210037082000B4002100A2
:100D980036082000B300220037082000B6002200E1
:100DA80036082000B5008031AC200800093020004A
:100DB80037063804031DF32E210035082000B4003F
:100DC800210034082000B300220035082000B600B6
:100DD800220034082000B5008031AC20080008301B
:100DE80037063804031D0B2F210023082000B40008
:100DF800210022082000B300220023082000B600AA
:100E0800220022082000B5008031AC2008000730FD
:100E180037063804031D232F21004F082000B40093
:100E280021004E082000B30022004F082000B60021
:100E380022004E082000B5008031AC2008000630A2
:100E480037063804031D3B2F210053082000B40047
:100E5800210052082000B300220053082000B600E9
:100E6800220052082000B5008031AC20080005306F
:100E780037063804031D532F21002D082000B40025
:100E880021002C082000B30022002D082000B60005
:100E980022002C082000B5008031AC200800043066
:100EA80037063804031D6B2F21002F082000B400DB
:100EB80021002E082000B30022002F082000B600D1
:100EC80022002E082000B5008031AC200800033035
:100ED80037063804031D832F21005D082000B40065
:100EE80021005C082000B30022005D082000B60045
:100EF80022005C082000B5008031AC2008000230D8
:100F080037063804031D9B2F210063082000B40016
:100F1800210062082000B300220063082000B60008
:100F2800220062082000B5008031AC200800370399
:100F38003804031D080021003F082000B4002100E8
:100F48003E082000B30022003F082000B60022001F
:100F58003E082000B5008031AC20080054308400E1
:100F6800803085003F308600003087000030FF0069
:100F78000A308031752087315530840081308500F2
:100F8800A0308600003087000030FF0044308031F8
:100F9800752087311130840081308500203086002B
:100FA800013087000030FF004430803175208731E0
:100FB800F0308400253085000030FE000230FF004C
:100FC800803169208731F03084002130850000307D
:100FD800FE000230FF00803169208731FD0120309A
:100FE8008400003085001330FE000030FF0080319F
:100FF800692020008231402A0034093412341B341D
:1010080024342D3436343F34483441345A3453343C
:101018006C3465347E347734193410340B3402342C
:101028003D3434342F3426345134583443344A341C
:1010380075347C3467346E3432343B34203429348C
:1010480016341F3404340D347A34733468346134FC
:101058005E3457344C3445342B34223439343034EC
:101068000F3406341D34143463346A3471347834DC
:1010780047344E3455345C3464346D3476347F34BC
:101088004034493452345B342C3425343E343734BC
:10109800083401341A3413347D3474346F346634AC
:1010A800593450344B34423435343C3427342E349C
:1010B8001134183403340A3456345F3444344D340C
:1010C80072347B34603469341E3417340C3405347C
:1010D8003A343334283421344F3446345D3454346C
:1010E8006B3462347934703407340E3415341C345C
:1010F80023342A34313438344134483453345A345C
:1011080065346C3477347E34093400341B3412343B
:101118002D3424343F343634583451344A3443342B
:101128007C3475346E3467341034193402340B341B
:1011380034343D3426342F3473347A34613468348B
:1011480057345E3445344C343B34323429342034FB
:101158001F3416340D3404346A34633478347134EB
:101168004E3447345C34553422342B3430343934DB
:1011780006340F3414341D3425342C3437343E34BB
:101188000134083413341A346D3464347F347634BB
:10119800493440345B3452343C3435342E342734AB
:1011A800183411340A34033474347D3466346F349B
:1011B8005034593442344B3417341E3405340C340B
:1011C80033343A34213428345F3456344D3444347B
:1011D8007B347234693460340E3407341C3415346B
:1011E8002A3423343834313446344F3454345D345B
:0811F80062346B347034793469
:020000040001F9
:04000E00E4FFFFFF0D
:00000001FF
